:100000000C94C0010C94E8010C94E8010C94381C89
:100010000C94381C0C94381C0C94E8010C94E801E6
:100020000C94E8010C9448020C94E8010C943E02F4
:100030000C94E8010C94E8010C94E8010C94E8019C
:100040000C946D190C94E8010C944E180C948018C3
:100050000C94E8010C94E8010C94E8010C94E8017C
:100060000C94E81F0C94E80107634236B79BD8A7AD
:100070001A39685618AEBAAB558C1D3CB7CC5763CD
:10008000BD6DEDFD753EF6177231BF000000803F7B
:1000900008000000BE922449123EABAAAA2ABECD97
:1000A000CCCC4C3E00000080BEABAAAAAA3E000009
:1000B0000000BF000000803F000000000008417801
:1000C000D3BB4387D1133D190E3CC3BD4282AD2B38
:1000D0003E68EC8276BED98FE1A93E4C80EFFFBE30
:1000E00001C4FF7F3F00000000002D256900434848
:1000F000414E47454D45002D2569004348414E4737
:10010000454D45002D2569004348414E47454D4525
:1001100000808183848687898A8C8D8F91929495C3
:1001200097989A9B9D9EA0A1A3A4A6A7A9AAACADAF
:10013000AFB0B2B3B4B6B7B9BABBBDBEBFC1C2C32C
:10014000C5C6C7C9CACBCCCECFD0D1D2D4D5D6D7CD
:10015000D8D9DADBDDDEDFE0E1E2E3E4E5E6E6E79D
:10016000E8E9EAEBECECEDEEEFF0F0F1F2F2F3F4AB
:10017000F4F5F5F6F7F7F8F8F9F9F9FAFAFBFBFBFD
:10018000FCFCFCFDFDFDFDFEFEFEFEFEFEFEFEFE99
:10019000FEFFFEFEFEFEFEFEFEFEFEFEFDFDFDFD82
:1001A000FCFCFCFBFBFBFAFAF9F9F9F8F8F7F7F6B7
:1001B000F5F5F4F4F3F2F2F1F0F0EFEEEDECECEB38
:1001C000EAE9E8E7E6E6E5E4E3E2E1E0DFDEDDDBFD
:1001D000DAD9D8D7D6D5D4D2D1D0CFCECCCBCAC904
:1001E000C7C6C5C3C2C1BFBEBDBBBAB9B7B6B4B33B
:1001F000B2B0AFADACAAA9A7A6A4A3A1A09E9D9B97
:100200009A9897959492918F8D8C8A89878684830A
:1002100081807E7C7B797876757372706E6D6B6A87
:100220006867656462615F5E5C5B595856555352FE
:10023000504F4D4C4B49484645444241403E3D3C61
:100240003A39383635343331302F2E2D2B2A2928A0
:10025000272625242221201F1E1D1C1B1A191918B0
:100260001716151413131211100F0F0E0D0D0C0B82
:100270000B0A0A0908080707060606050504040410
:100280000303030202020201010101010101010154
:10029000010101010101010101010101020202024A
:1002A00003030304040405050606060707080809F6
:1002B0000A0A0B0B0C0D0D0E0F0F10111213131455
:1002C0001516171819191A1B1C1D1E1F2021222470
:1002D00025262728292A2B2D2E2F30313334353649
:1002E00038393A3C3D3E40414244454648494B4CF2
:1002F0004D4F505253555658595B5C5E5F61626476
:100300006567686A6B6D6E707273757678797B7CE1
:100310007E5042462D33205465737400000000085F
:1003200000020100000304070000000000000000BC
:10033000010204081020408001020408102001027C
:100340000408102004040404040404040202020249
:10035000020203030303030300000000230026003E
:10036000290000000000250028002B0000000000EC
:10037000240027002A005B0E2417B018F01E620E1E
:1003800011241FBECFEFD8E0DEBFCDBF13E0A0E049
:10039000B1E0E0EFF6E502C005900D92A034B107A0
:1003A000D9F725E0A0E4B3E001C01D92A33CB20759
:1003B000E1F711E0CFEBD1E004C02197FE010E94EC
:1003C0004027CB3BD107C9F70E9415170C946B2B24
:1003D0000C940000CF93DF93FC01DC01169630E40F
:1003E000EB012881222329F06F5F7F4F220F2083AA
:1003F00001C030833196EA17FB0791F7405D440F47
:10040000FC0146830796DF91CF9108958F929F92CA
:10041000AF92BF92CF92DF92EF92FF920F931F9312
:10042000CF93C62F622FEC2EF12C8C010E0D1F1DC9
:10043000F801108268018BE5882E912CA12CB12C3B
:10044000CC2369F0732FCA01A50194010E94602595
:100450006F5DF60162936F01622FC150F1CFC80149
:100460008E199F09CF911F910F91FF90EF90DF9010
:10047000CF90BF90AF909F908F9008951F920F9252
:100480000FB60F9211240F900FBE0F901F9018956A
:100490001F920F920FB60F9211242F933F934F93F9
:1004A0005F938F939F93EF93FF93E091A803F09155
:1004B000A903EE0FEF2FEE1FFF0BF195EF5EFE4F3E
:1004C000E491E093B400809108019091090120919A
:1004D000A8033091A903280F391F3093A903209353
:1004E000A8032091A6033091A7032F5F3F4F2A3125
:1004F000310528F43093A7032093A60386C01092F9
:10050000A7031092A6033091A503353049F421EDDD
:1005100082272BE19227909309018093080131C033
:10052000209107012F5F283019F02093070132C076
:100530001092070120910601263020F44091AA0371
:10054000411146C021502093060121111DC05D9824
:10055000809170008E7F809370001092A70310929C
:10056000A6031092A9031092A80384ED99E090933A
:1005700009018093080187E38093060187E0809357
:1005800007011092A50341C02EE72093A4032FEF8B
:100590002093A5032091A4033091A50320FF06C05A
:1005A00037FD0FC03F5F3093A5030BC041ED84279B
:1005B0004BE19427909309018093080137FF109233
:1005C000A503822F90E0959587958093A4031DC085
:1005D000E091AB03F091AC03AF014F5F5F4F5093DD
:1005E000AC034093AB0320812093A4032091AA0382
:1005F00021502093AA03211103C027E02093060174
:1006000037FFC8CF1092A503C5CFFF91EF919F91FF
:100610008F915F914F913F912F910F900FBE0F904F
:100620001F9018950F931F93CF93DF93CDB7DEB72D
:100630000F8518894E856C857D8580E493E00E9446
:10064000EA014B8569857A850E94EA01002329F039
:10065000402F66EF71E00E94EA01112329F0412F3B
:100660006CEF71E00E94EA01FC012291216020837D
:1006700023E0DC012C93FC01329620EF11962C93A1
:1006800062EA73E06E1B7F0B9E012D5E3F4F49892E
:100690005A89CF010E94C128A0E4B3E08FEF9FEFF9
:1006A000FD012D91222391F08227082E8295807FD3
:1006B0008025092E982F82958F7008268695982779
:1006C0008927880F880F880F8025EACF809580833F
:1006D000892F8095818380E493E09093AC0380938D
:1006E000AB03EE53F340E093AA0380917000816066
:1006F00080937000DF91CF911F910F910895F8942E
:1007000010928000E1E8F0E010828BE990E0909395
:1007100089008093880080818860808380818160E7
:100720008083808184608083EFE6F0E08081826056
:1007300080837894089583E28093B00081E0809371
:10074000B10061E083E00C94881A2F923F924F929F
:100750005F926F927F928F929F92AF92BF92CF9251
:10076000DF92EF92FF920F931F93CF93DF93CDB75A
:10077000DEB769970FB6F894DEBF0FBECDBF8C0110
:100780005D9AFC01808191819E012F5F3F4F19018D
:10079000009709F04AC1268137814085518564EA76
:1007A00073E986E59EE40E9416216B017C0120E03E
:1007B00030E040ED51E40E9483214B015C0120E0D8
:1007C00030E649E255E4C701B6010E9483219B014E
:1007D000AC01C501B4010E9416214B015C0127E266
:1007E00030EC4AE65BE4C701B6010E9483219B011D
:1007F000AC01C501B4010E9417214B015C0120E04E
:1008000030E040E05FE3F80162857385848595857B
:100810000E94312324EA33E946E55EE40E94172171
:100820006B017C0120E030E040ED51E40E94832127
:100830002B013C0120E030E649E255E4C701B60156
:100840000E9483219B01AC01C301B2010E941621C9
:100850002B013C0127E230EC4AE65BE4C701B6011C
:100860000E9483219B01AC01C301B2010E941721A8
:100870002B013C01F801A685B78528E230E80E94EB
:10088000A12520E137E240E050E00E948225F22ECF
:10089000E32ED42EC52EF801278D30A140E050E084
:1008A00062E0C1010E940602F80122893389032E09
:1008B000000C440B550B62E0CE0103960E94060229
:1008C000F801248935892C593F4F032E000C440B25
:1008D000550B62E0CE0105960E940602F8012689BA
:1008E0003789032E000C440B550B62E0CE010796AE
:1008F0000E940602F801208D318D032E000C440B5E
:10090000550B62E0CE0109960E940602F801868529
:100910009785F58DF88FF801F68DF98F893E934014
:100920007CF1C301B2010E94FC219B01AC0164E097
:10093000CE010E960E940602782E692EC501B401E2
:100940000E94FC219B01AC0164E0CE0143960E9411
:100950000602398D3F93E88DEF933F922F92CF920D
:10096000DF92EF92FF926F927F929F938F9382E03C
:1009700092E09F938F93F80184818F931F922FC0F1
:10098000C301B2010E94FC219B01AC0164E0CE01D5
:100990000E960E940602782E692EC501B4010E94AF
:1009A000FC219B01AC0164E0CE0143960E9406024B
:1009B000398D3F93E88DEF933F922F92CF92DF9244
:1009C000EF92FF926F927F929F938F9382E092E0DB
:1009D0009F938F93F80184818F9382818F931F92CD
:1009E0008BE192E09F938F93848D8F93838D8F9370
:1009F000828D8F931F930F930E9412030FB6F8946A
:100A0000DEBF0FBECDBFF801878D90A1019690A3E8
:100A1000878F62E370E00E943825892B09F0DFC0E0
:100A200081E090E091838083DAC08130910509F004
:100A300042C047E050E068E071E0C9010E948228AE
:100A4000F801248D2223E1F0F10101900020E9F763
:100A5000422F022E000C550B5F932F9324E031E0C0
:100A60003F932F931F9224E02F93CF0101979F93E1
:100A70008F930E9491280FB6F894DEBF0FBECDBFB2
:100A80003F922F9280E292E09F938F931F921F924A
:100A90001F928BE192E09F938F93F801848D8F9347
:100AA000838D8F93828D8F931F930F930E941203D8
:100AB00082E090E044C0029709F045C047E050E072
:100AC0006BEF70E0C9010E948228F801248D222377
:100AD000E1F0F10101900020E9F7422F022E000C15
:100AE000550B5F932F9327EF30E03F932F931F9287
:100AF00024E02F93CF0101979F938F930E94912819
:100B00000FB6F894DEBF0FBECDBF3F922F9284E5A3
:100B100092E09F938F931F921F921F928BE192E01E
:100B20009F938F93F801848D8F93838D8F93828D04
:100B30008F931F930F930E94120383E090E0F801BC
:100B40009183808347C083E090E0F80191838083A4
:100B500047E050E06EEE70E0C9010E948228F80183
:100B6000248D2223E1F0F10101900020E9F7422FCA
:100B7000022E000C550B5F932F932AEE30E03F932B
:100B80002F931F9224E02F93CF0101979F938F9370
:100B90000E9491280FB6F894DEBF0FBECDBF3F92E2
:100BA0002F9282E792E09F938F931F921F921F9242
:100BB0008BE192E09F938F93F801848D8F93838DC7
:100BC0008F93828D8F931F930F930E941203F801CE
:100BD000118210820FB6F894DEBF0FBECDBF6996AA
:100BE0000FB6F894DEBF0FBECDBFDF91CF911F913E
:100BF0000F91FF90EF90DF90CF90BF90AF909F90BC
:100C00008F907F906F905F904F903F902F900895BE
:100C1000CF93DF93CDB7DEB72DE1FE013596DC0132
:100C2000129601900D922A95E1F7DF91CF910895E8
:100C30002091B904222399F04FB7F8942091B90478
:100C4000213059F42DB32093B7043DB32091B8045B
:100C5000209523232DBB4FBF02C04093B7048CBD0A
:100C60009DBD08958091B904882361F09FB7F894E1
:100C70002091B9048091B704213019F48DBB9FBF36
:100C800008958FBF0895FC018FEF81878287838746
:100C900084870895CF92DF92EF92FF920F931F9374
:100CA000CF93DF93FC0124852F3F39F46EBD000004
:100CB0000DB407FEFDCF8EB52BC0D62F8C0187E07B
:100CC000E82EF12CC0E0CC24C394D12CCC0F60E0F2
:100CD000F80184850E94C41AB6010E2C01C0660F6B
:100CE0000A94EAF76D23F80182850E94C41A61E034
:100CF000F80184850E94C41AF80183850E94F41AC1
:100D0000892B09F0C160F1E0EF1AF108F8F68C2F99
:100D1000DF91CF911F910F91FF90EF90DF90CF90D7
:100D200008950F931F93CF93DF93EC01162F042F99
:100D300089858F3FB9F468818FEF94E00E94691E26
:100D4000612F8FEF94E00E94201E602F8FEF94E0C0
:100D50000E94201E8FEF94E0DF91CF911F910F91A1
:100D60000C94ED1E8C858F3F21F481E590E00E946C
:100D7000180660E089850E94C41A612F6F77CE0142
:100D80000E944A06602FCE010E944A0661E08985D2
:100D90000E94C41A8C858F3F31F4DF91CF911F914F
:100DA0000F910C943206DF91CF911F910F9108950E
:100DB000CF92EF920F93CF93DF93EC016295660F82
:100DC000660F607C47702770822F880F880F880F0E
:100DD000262F242B282B2FA7902F9295990F907EAA
:100DE00088A98F71892B88AB8E2D8770880F880F0B
:100DF000880F9EA5292F207C9C2D9770E22EE82A33
:100E0000E92AEEA6402F477062EFCE010E949106BC
:100E10009EA5492F477060E2469F90011124892FBB
:100E2000869586958695877068E0869FA001112437
:100E3000422B532B97FB992790F9492B65EFCE0155
:100E40000E9491069FA5492F477080E2489F90011C
:100E50001124892F869586958695877068E0869FF0
:100E6000A0011124422B532B929596959695937041
:100E7000492B64EFCE01DF91CF910F91EF90CF908E
:100E80000C9491061F93CF93DF93EC01162F898565
:100E90008F3FD1F468818FEF94E00E94691E612F2B
:100EA0008FEF94E00E94201E8FEF94E00E94ED1ED1
:100EB00041E068818FEF94E00E94EA1E8FEF94E09A
:100EC0000E94CC1D182F1EC08C858F3F21F481E518
:100ED00090E00E94180660E089850E94C41A612F84
:100EE0006068CE010E944A0660E0CE010E944A0678
:100EF000182F61E089850E94C41A8C858F3F11F4F8
:100F00000E943206812FDF91CF911F91089563EFE8
:100F10000E944207817008950F931F93CF93DF9330
:100F20008C01C62FFC0181858F3F29F560818FEFF1
:100F300094E00E94691E6C2F8FEF94E00E94201EA7
:100F40008FEF94E00E94ED1E42E0F80160818FEF88
:100F500094E00E94EA1E8FEF94E00E94CC1DC82FFF
:100F60008FEF94E00E94CC1D20E030E03C2FE9019F
:100F7000C82BD92B2CC0F80184858F3F21F481E543
:100F800090E00E94180660E0F80181850E94C41A72
:100F90006C2F6068C8010E944A0660E0C8010E9488
:100FA0004A06C82F60E0C8010E944A062C2F30E094
:100FB000322F2227E901C82B61E0F80181850E94C8
:100FC000C41AF80184858F3F11F40E943206CE01C5
:100FD000DF91CF911F910F9108950E948C07982760
:100FE0008927982708951F93CF93DF93EC0168E832
:100FF0000E94ED079E878D876AE8CE010E94ED076B
:10100000988B8F876CE8CE010E94ED079A8B898BB5
:101010006EE8CE010E94ED079C8B8B8B60E9CE01C0
:101020000E94ED079E8B8D8B62E9CE010E94ED0739
:10103000988F8F8B64E9CE010E94ED079A8F898F7C
:1010400066E9CE010E94ED079C8F8B8F68E9CE0187
:101050000E94ED079E8F8D8F6AE9CE010E94ED07F9
:1010600098A38F8F6CE9CE010E94ED079AA389A304
:101070006EE9CE010E94ED079CA38BA361EACE012D
:101080000E9442078DA361EECE010E94ED079FA34F
:101090008EA363EECE010E94420788A764EECE01C4
:1010A0000E944207182F65EECE010E944207282FAA
:1010B0002F7030E1139FC0011124822B9AA789A7BA
:1010C00066EECE010E944207182F65EECE010E9407
:1010D000420790E024E0959587952A95E1F740E155
:1010E000149F90011124822B932B9CA78BA767EE52
:1010F000CE010E9442078DA7DF91CF911F910895E5
:10110000CF92DF92EF92FF920F931F93CF93DF93D3
:10111000EC01688389858F3F29F48FEF94E00E946A
:101120005F1E18C061E00E94C41A61E089850E94B8
:10113000881A8C858F3F19F40E941D1B0BC061E03B
:101140000E94881A61E08A850E94881A60E08B8577
:101150000E94881A60EDCE010E944207803649F550
:1011600046EB60EECE010E9491066CE271E080E0F9
:1011700090E00E94E819CE010E948707882329F099
:1011800064E670E080E090E0F4CFCE010E94F307C7
:10119000C12CD12CE12CF12C05E010E025E030E051
:1011A00045E050E063E070E0CE010E94D80681E0A7
:1011B00001C080E0DF91CF911F910F91FF90EF90E0
:1011C000DF90CF900895CF92DF92EF92FF921F931E
:1011D000CF93DF93EC01162F89858F3FE9F5688166
:1011E0008FEF94E00E94691E612F8FEF94E00E94C0
:1011F000201E8FEF94E00E94ED1E43E068818FEF88
:1012000094E00E94EA1E8FEF94E00E94CC1D6C01D6
:10121000990FEE08FF08FE2CED2CDC2CCC248FEF70
:1012200094E00E94CC1DAC01990F660B770BC42A89
:10123000D52AE62AF72AFE2CED2CDC2CCC248FEFC5
:1012400094E00E94CC1DAC01990F660B770BC42A69
:10125000D52AE62AF72A33C08C858F3F21F481E511
:1012600090E00E94180660E089850E94C41A612FF0
:101270006068CE010E944A0660E0CE010E944A06E4
:10128000C82ED12CE12CF12CFE2CED2CDC2CCC2406
:1012900060E0CE010E944A06C82AFE2CED2CDC2C10
:1012A000CC2460E0CE010E944A06C82A61E089850C
:1012B0000E94C41A8C858F3F11F40E943206C70128
:1012C000B601DF91CF911F91FF90EF90DF90CF900B
:1012D00008958F929F92AF92BF92CF92DF92EF923A
:1012E000FF920F931F93CF93DF93EC016AEF0E945D
:1012F000E3086115710520E88207910509F46FC0C4
:101300000D851E8520E030E0C72ED82EE92EFF2463
:10131000E7FCFA94C01AD10AE20AF30AAB01BC0155
:10132000E7E07595679557954795EA95D1F7000FD2
:10133000111F221F331FDB01CA01801B910BA20B5F
:10134000B30B9C01AD01AF85B8890E94B3254B0159
:101350005C01ABE0B594A79497948794AA95D1F7D4
:10136000A7019601C701B6010E9428259B01AC0187
:10137000BCE05595479537952795BA95D1F7A9893A
:10138000BA890E94B325AB01BC011EE07595679533
:10139000579547951A95D1F79A01AB01280D391D3C
:1013A0004A1D5B1D2D833E834F835887A5E0B0E027
:1013B0000E94A825DC01CB0180589F4FAF4FBF4F43
:1013C000692F7A2F8B2F992787FD9A950E943322B8
:1013D00020E030E048EC52E40E94832104C060E049
:1013E00070E080EC9FE7DF91CF911F910F91FF900C
:1013F000EF90DF90CF90BF90AF909F908F90089527
:101400004F925F926F927F928F929F92AF92BF9214
:10141000CF92DF92EF92FF92CF93DF93EC010E9485
:1014200069096DEFCE010E948C07AC0160E070E0AD
:10143000411520E852076105710509F4DCC08D8073
:101440009E80AF80B8843CE2931A31E0A30AB108D1
:101450003EE0440F551F661F771F3A95D1F789A5C7
:101460009AA5092E000CAA0BBB0BE4E1880F991F6B
:10147000AA1FBB1FEA95D1F76A017B01C81AD90AD6
:10148000EA0AFB0AABA5BCA5A50194010E94B325FD
:10149000C61AD70AE80AF90A40E4D40EE11CF11C86
:1014A000FFE0F594E794D794C794FA95D1F7ADA5EA
:1014B0000A2E000CBB0BA50194010E94B3252B0141
:1014C0003C01AAE07594679457944794AA95D1F784
:1014D000A8A5B0E00E94A825DC01CB012BE0B595C2
:1014E000A795979587952A95D1F7BC01CD0170589E
:1014F0008F4F9F4FA30192010E942825DC01CB0151
:101500003AE0B595A795979587953A95D1F79C01BF
:10151000AD01405E5F4FAEA1BFA10E94B325DC01CB
:10152000CB01905EAF4FBF4FBC01CD014EE0959512
:101530008795779567954A95D1F7A70196010E94FF
:1015400028256B017C015FE09595879577956795D8
:101550005A95D1F79B01AC010E9428259B01AC0153
:1015600067E055954795379527956A95D1F7ADA1D1
:10157000B0E00E94A825DC01CB0174E0B595A795E9
:10158000979587957A95D1F7A7019601281B390B76
:101590004A0B5B0BDA01C90157FF03C080E090E002
:1015A000DC0181309105A10539E1B30724F080E029
:1015B00090E0A0E0B9E1BC01CD012CE095958795C4
:1015C000779567952A95D1F70E94332220E030E085
:1015D00040E85AE30E9431237B01D82FC92F9B0199
:1015E000482F592F0E94EE23882349F0E12CF12C3B
:1015F000D0E0C0E004C0E12CF12CD0ECCFE7B70183
:101600008D2F9C2FDF91CF91FF90EF90DF90CF90A7
:10161000BF90AF909F908F907F906F905F904F9012
:1016200008952F923F924F925F926F927F928F9286
:101630009F92AF92BF92CF92DF92EF92FF920F9361
:101640001F93CF93DF93CDB7DEB7A4970FB6F8946F
:10165000DEBF0FBECDBF9CA38BA30E94690967EFBD
:101660008BA19CA10E94E30869877A878B879C875E
:10167000611571058048910509F417C2EBA1FCA121
:1016800085819681A781B0856C017D01FF0CCC0816
:10169000DC2C76019C01AD016C2D7C2D8C2D9C2DBC
:1016A000345F414051096109710981099109298318
:1016B0003A834B835C836D837E838F839887590144
:1016C0006A017B018C010E94BB25288F398F4A8FCC
:1016D0005B8F6C8F7D8F8E8F9F8FABA1BCA15D9632
:1016E000BC91B8A3EBA1FCA1F68DFD87ABA1BCA179
:1016F0005B96BC91B9A3EBA1FCA1F48DFE87ABA1D5
:10170000BCA15996BC91BAA3EBA1FCA1F28DFF87B5
:10171000ABA1BCA15696BC9056975596AC901B2D8C
:10172000110F110BC12ED12EE12EF12E012F298187
:101730003A814B815C816D817E818F8198850E9489
:10174000BB250CE00E94EB2619012A013B014C014C
:10175000EBA1FCA1B08CA7881B2D110F110BC12E82
:10176000D12EE12EF12E012F288D398D4A8D5B8DE2
:101770006C8D7D8D8E8D9F8D0E94BB2508E00E9413
:10178000042751016201730184010E9422277058CD
:101790008F4F9F4FABA1BCA153962D903C90549777
:1017A0005101C12CD12CE12CF12C00E010E00E9461
:1017B000BB2501E20E940427288B398B4A8B5B8B67
:1017C0006C8B7D8B8E8B9F8BA0E00E94342709F45D
:1017D00071C1A8A01D85110F110BBD84C12ED12E82
:1017E000E12EF12E012F288D398D4A8D5B8D6C8D68
:1017F0007D8D8E8D9F8D0E94BB2519012A013B0195
:101800004C01A9A01E85110F110BBE84C12ED12E33
:10181000E12EF12E012F29813A814B815C816D816E
:101820007E818F8198850E94BB2501E10E94EB2675
:1018300059016A017B018C019101A201B301C4012C
:101840000E94222719012A013B014C0149855A8532
:101850006B857C8584E075956795579547958A9546
:10186000D1F780E090E0A0E1B0E0841B950BA60BDF
:10187000B70B6C017D01FF0CCC08DC2C76019C01C0
:10188000AD016C2D7C2D8C2D9C2D0FE10E94EB2643
:10189000F901B42FA52F6D837E838B839C832AA1AE
:1018A0009F85990F990B3F85492F592F692F792FC4
:1018B000892F03E20E94EB2659016A017B018C010A
:1018C0009101A201B301C4010E94222759016A01BA
:1018D0007B018C019F014B2F5A2F6D817E818B8163
:1018E0009C810E942B274901542E652EB62FA72FCD
:1018F000F82FE92F03E00E94EB265401C52CD62CCB
:10190000EB2EFA2E0F2F1E2F0E942B2759016A0152
:101910007B01782E192F03E00E94EB26072D0E94F1
:101920002B2703E00E94EB265401C52CD62CEB2E6E
:10193000FA2E0F2F1E2F0E942B2702E00E94EB266B
:101940000F2F0E942B2701E00E94EB260F2F0E94F1
:101950002B27A888B988CA88DB88EC88FD880E897F
:101960001F890E94162629833A834B835C836D83EB
:101970007E838F8398870DE00E940427922E832E0A
:10198000742E652E562E472E382E292EEBA1FCA143
:1019900034A123A1932F990F990BA92CB82CC72CF4
:1019A000D62CE52CF42C032D122D492F592F692FFD
:1019B000792F892F0E94BB250E94BB2509E10E9437
:1019C000042759016A017B018C0129813A814B81ED
:1019D0005C816D817E818F8198850E94222719010B
:1019E0002A013B014C01ABA1BCA192963C9192977C
:1019F00091962C91932F990F990BA980BA80CB8047
:101A0000DC80ED80FE800F811885492F592F692FCA
:101A1000792F892F0E94BB2503E10E9404275901D9
:101A20006A017B018C019101A201B301C4010E94F2
:101A3000222708E00E940427522E632E742E852E42
:101A4000962EF72FE82F492EABA1BCA190963C9182
:101A500090975F962C91932F990F990B492F592F9F
:101A6000692F792F892F04E00E94EB2659016A0122
:101A70007B018C01252D362D472D582D692D7F2F6B
:101A80008E2F942D0E9422270E942B2220E030E0EE
:101A900040E85BE30E9431238B017C019B01AC0198
:101AA0000E94EE23882359F005C020E070E080EC0E
:101AB0009FE708C020E070E080E090E003C0202FA6
:101AC000712FC701C22ED72E7C01C701B601A49683
:101AD0000FB6F894DEBF0FBECDBFDF91CF911F913F
:101AE0000F91FF90EF90DF90CF90BF90AF909F90BD
:101AF0008F907F906F905F904F903F902F900895C0
:101B0000CF92DF92EF92FF926A017B010E94110B4C
:101B100020E030E048EC52E40E948321A7019601C6
:101B20000E94832121E03EED42E45EE30E949E2379
:101B30009B01AC0160E070E080E89FE30E94162109
:101B400020E03AE24DE257E40E9431236B017C0130
:101B50009B01AC010E94EE23882319F0C12CD12CEB
:101B60007601C701B601FF90EF90DF90CF90089506
:101B7000CF92DF92EF92FF926B017C010E94B71926
:101B8000C60ED71EE81EF91E0E94B719C616D70644
:101B9000E806F906C8F7FF90EF90DF90CF90089520
:101BA0000F931F93CF93DF93D901E8011C92188202
:101BB000FB018E2F861B841740F491918C91890F25
:101BC0008C939881890F8883F4CFDF91CF911F91F7
:101BD0000F910895DF92EF92FF920F931F93CF938F
:101BE000DF9300D0CDB7DEB77B01D42E8E010F5F1F
:101BF0001F4F9E012E5F3F4F0E94D00DF701ED0D4C
:101C0000F11D9A818081981304C081E0298191811E
:101C1000291380E00F900F90DF91CF911F910F91CA
:101C2000FF90EF90DF900895FC0185E1DF011D92A8
:101C30008A95E9F7DB01A25BBF4F8D919D910D90D5
:101C4000BC91A02D80879187A287B387DB01AB5918
:101C5000BF4F8C91818B11978C91808B5E978D916A
:101C60009D910D90BC91A02D80839183A283B3831D
:101C7000DB01A65BBF4F8D919D910D90BC91A02D76
:101C800084839583A683B783DB01AA59BF4F8C91C8
:101C9000828B11968C91838B11968C91848B5697A5
:101CA0008D919D910D90BC91A02D84879587A687DD
:101CB000B787CF01089520E04CE06DE08DEA93E016
:101CC0000C940B1D8DEA93E00C94B21CEF92FF92E2
:101CD0000F931F93CF93DF937B01C42F8DEA93E083
:101CE0000E94C81B6FEF8DEA93E00E94741B64E6AC
:101CF00070E080E090E00E94B80D8701D0E0C8015C
:101D00008E199F098C179D0744F4F80161918F018A
:101D10008DEA93E00E94741BF2CFDF91CF911F9167
:101D20000F91FF90EF900895CF93DF93CDB7DEB77B
:101D30002C970FB6F894DEBF0FBECDBF2CE0EEE0BF
:101D4000F1E0DE01119601900D922A95E1F74CE049
:101D5000BE016F5F7F4F0E94660E2C960FB6F894FF
:101D6000DEBF0FBECDBFDF91CF910895CF93DF933C
:101D7000CDB7DEB72A970FB6F894DEBF0FBECDBF42
:101D80002AE0EAE1F1E0DE01119601900D922A9538
:101D9000E1F74AE0BE016F5F7F4F0E94660E2A9610
:101DA0000FB6F894DEBF0FBECDBFDF91CF9108957F
:101DB000CF93DF93CDB7DEB72A970FB6F894DEBF87
:101DC0000FBECDBF2AE0E4E2F1E0DE011196019002
:101DD0000D922A95E1F74AE0BE016F5F7F4F0E94A6
:101DE000660E2A960FB6F894DEBF0FBECDBFDF9108
:101DF000CF910895CF92DF92EF92FF920F931F93AE
:101E0000CF93DF93CDB7DEB72A970FB6F894DEBF36
:101E10000FBECDBF8B010E94B7196B017C0185EB12
:101E2000898382E68A8385E08B8381E08C8382E0EC
:101E30008D831E82F80182818F8383818887198632
:101E40001A86FE0133969E01275F3F4F9191898547
:101E5000890F89879A85890F8A87E217F307B1F777
:101E600010E01A3020F50E94B719DC01CB018C1963
:101E70009D09AE09BF09893B9B40A105B105C8F486
:101E80008DEA93E00E94E11B892B59F38DEA93E0E0
:101E90000E94531BE1E0F0E0EC0FFD1FE10FF11D8C
:101EA0009081981711F010E0DECF1F5FDACF81E04C
:101EB00001C080E02A960FB6F894DEBF0FBECDBFFA
:101EC000DF91CF911F910F91FF90EF90DF90CF9016
:101ED00008950F931F93CF93DF93CDB7DEB7E497A9
:101EE0000FB6F894DEBF0FBECDBF8C0184E3EEE2E7
:101EF000F1E0DE01119601900D928A95E1F744E33D
:101F0000BE016F5F7F4FC8010E94660EBE016F5F0A
:101F10007F4FC8010E94FA0E882389F3E4960FB61A
:101F2000F894DEBF0FBECDBFDF91CF911F910F910F
:101F300008950F931F93CF93DF93CDB7DEB7AC9780
:101F40000FB6F894DEBF0FBECDBF8C018CE2E2E687
:101F5000F1E0DE01119601900D928A95E1F74CE2D5
:101F6000BE016F5F7F4FC8010E94660EBE016F5FAA
:101F70007F4FC8010E94FA0E882389F3AC960FB6F2
:101F8000F894DEBF0FBECDBFDF91CF911F910F91AF
:101F900008950F931F93CF93DF93CDB7DEB76C9760
:101FA0000FB6F894DEBF0FBECDBF8C018CE1EEE81A
:101FB000F1E0DE01119601900D928A95E1F74CE176
:101FC000BE016F5F7F4FC8010E94660E4CE1BE01EB
:101FD0006F5F7F4FC8010E94660EBE016F5F7F4F2B
:101FE000C8010E94FA0E882389F364EF71E080E053
:101FF00090E00E94B80DC8010E94690F64EF71E083
:1020000080E090E00E94B80DC8010E94990F64EF33
:1020100071E080E090E00E94B80DC8010E94D80EE7
:1020200064EF71E080E090E00E94B80D6C960FB60E
:10203000F894DEBF0FBECDBFDF91CF911F910F91FE
:102040000895CF93DF93EC010E94940ECE01DF91AF
:10205000CF910C94C90FCF93DF93EC011DAE1CAE52
:102060001FAE1EAEFC01E05CFF4F11821082329663
:102070001182108232961182108232961082118261
:102080001282138234961082118212821382349645
:10209000108211821282138234961082118212826F
:1020A0001382349610821182128213823496108227
:1020B000118212821382349610821182128213824C
:1020C00034961182108232961082319610823196A7
:1020D000108231961082319610823196108231969C
:1020E0001082319610823196108240E855E260E00D
:1020F00070E08DEA93E00E94361DCE01DF91CF9112
:102100000C9421100F931F93CF93DF93CDB7DEB7BD
:10211000AC970FB6F894DEBF0FBECDBF8C018CE23A
:10212000EAEAF1E0DE01119601900D928A95E1F75D
:102130004CE2BE016F5F7F4FC8010E94660EBE0178
:102140006F5F7F4FC8010E94FA0E882389F3AC9617
:102150000FB6F894DEBF0FBECDBFDF91CF911F91B8
:102160000F910895CF93DF93EC01FC01E25BFF4FE9
:1021700040815181628173818EAD9FAD493E534054
:10218000610571057CF477962081253058F003971E
:10219000A9F0CE010E948210CE59DF4F888199812B
:1021A00088600AC0069751F0CE010E94990FCE595F
:1021B000DF4F88819981877F99838883DF91CF91D1
:1021C0000895CF92DF92EF92FF920F931F93CF93D8
:1021D000DF938C018DEA93E00E94C81BE801045C48
:1021E0001F4FFE011192E017F107E1F70E94B719A6
:1021F0006B017C01C017D107C9F00E94B719DC013F
:10220000CB018C199D09AE09BF09883E9340A105F9
:10221000B10560F48DEA93E00E94E11B892B51F334
:102220008DEA93E00E94531B8993E4CFDF91CF9115
:102230001F910F91FF90EF90DF90CF9008950F9333
:102240001F93CF93DF93CDB7DEB728970FB6F894DF
:10225000DEBF0FBECDBF8C0188E0E6EDF1E0DE0110
:10226000119601900D928A95E1F748E0BE016F5FEB
:102270007F4FC8010E94660EC8010E94E110F8015C
:102280008081853B19F48181823629F089E290E0D2
:10229000F80195AF84AFF8018281863019F483810B
:1022A000843229F08AE290E0F80195AF84AF48E2E9
:1022B000B8016E5F7F4FC8010E94EA0D811105C011
:1022C0008BE290E0F80195AF84AFF801808590E053
:1022D00097AF86AF28960FB6F894DEBF0FBECDBF7E
:1022E000DF91CF911F910F9108953F924F925F928E
:1022F0006F927F928F929F92AF92BF92CF92DF9216
:10230000EF92FF920F931F93CF93DF93CDB7DEB77A
:1023100028970FB6F894DEBF0FBECDBF8C01DC014D
:10232000DD961C921E92DC978DEA93E00E94C81BFA
:1023300088E0EEEDF1E0DE01119601900D928A95B4
:10234000E1F748E0BE016F5F7F4FC8010E94660E53
:10235000C8010E94E110F8018081853B19F4818158
:10236000823639F085E190E0D801DD969C938E931A
:10237000DC97F8018281813019F48381823039F051
:1023800086E190E0D801DD969C938E93DC9740E245
:10239000B8016E5F7F4FC8010E94EA0D811105C030
:1023A00087E190E0F80195AF84AFD801DC968D917C
:1023B0009C91DD97892B09F000C1F801EB59FF4F83
:1023C00080817F977F0134969801225B3F4F69019E
:1023D000843088F4D7011D921D921D921C92139790
:1023E0001082118212821382D9011D921D921D92B8
:1023F0001C92139757C0D8011B962C911B971C96C3
:102400008C9190E0A0E0B0E0DC0199278827AC0136
:10241000BD01522BD8011A962C911A97422B1D966A
:102420002C91DB01CA01B22B80839183A283B383F9
:10243000D8011F962C911F9750968C9190E0A0E0A8
:10244000B0E0DC0199278827AC01BD01522BD801EF
:102450001E962C911E97422B51962C91722BD701D0
:102460004D935D936D937C931397D80157962C9160
:10247000579758968C9190E0A0E0B0E0DC01992746
:102480008827AC01BD01522BD80156962C91569746
:10249000422B59962C91722BD6014D935D936D93DF
:1024A0007C93139760807180A280B3804801B4E46C
:1024B0008B0E911CB301C50120E836E948E950E0D4
:1024C0000E948225C90137FF04C088279927821BF3
:1024D000930BF401918380834801FAE58F0E911CE0
:1024E000B301C50197FF07C09095809570956195E0
:1024F0007F4F8F4F9F4F20E8422E26E9522E28E92A
:10250000622E712CA30192010E9482252AE030E004
:1025100040E050E00E948225D4012D933D934D93DD
:102520005C931397F7013080A180B280F38048015B
:10253000F2E48F0E911C632D7A2D8B2D9F2DA3011C
:1025400092010E948225C90137FF04C0882799277C
:10255000821B930BD4018D939C930A5A1F4F632DBA
:102560007A2D8B2D9F2D97FF07C0909580957095A4
:1025700061957F4F8F4F9F4F20E836E948E950E043
:102580000E9482252AE030E040E050E00E9482254F
:10259000F8012083318342835383D6016D917D916D
:1025A0008D919C9128EE33E040E050E00E9482251E
:1025B000F601208331834283538328960FB6F89423
:1025C000DEBF0FBECDBFDF91CF911F910F91FF9066
:1025D000EF90DF90CF90BF90AF909F908F907F90C3
:1025E0006F905F904F903F9008950F931F93CF93FC
:1025F000DF93CDB7DEB728970FB6F894DEBF0FBED6
:10260000CDBF8C01FC0115AE14AE8DEA93E00E94A3
:10261000C81B88E0E6EEF1E0DE01119601900D9214
:102620008A95E1F748E0BE016F5F7F4FC8010E94C5
:10263000660EC8010E94E110F8018081853B19F403
:102640008181823629F08FE190E0F80195AF84AF67
:10265000F8018281813019F48381813229F080E28E
:1026600090E0F80195AF84AF48E1B8016E5F7F4F0D
:10267000C8010E94EA0D811105C081E290E0F801D5
:1026800095AF84AFF80184AD95AD892BB9F4268957
:10269000283130F497899C3318F4808D8C3330F0D6
:1026A00082E290E0F80195AF84AF08C0F801EA59E2
:1026B000FF4F2083319690833196808328960FB602
:1026C000F894DEBF0FBECDBFDF91CF911F910F9168
:1026D00008950F931F93CF93DF93CDB7DEB728975D
:1026E0000FB6F894DEBF0FBECDBF8C01DC01DD96C6
:1026F0001C921E92DC978DEA93E00E94C81B88E032
:10270000EEEEF1E0DE01119601900D928A95E1F76F
:1027100048E0BE016F5F7F4FC8010E94660EC8018E
:102720000E94E110F8018081853B19F48181823695
:1027300039F08BE090E0D801DD969C938E93DC9786
:10274000F8018281813019F48381863039F08CE080
:1027500090E0D801DD969C938E93DC9748E3B80116
:102760006E5F7F4FC8010E94EA0D811105C08DE0A8
:1027700090E0F80195AF84AFD801DC968D919C91E3
:10278000DD97F801EC59FF4F892B91F451968C910C
:10279000519780FF04C050968C91808301C01082B5
:1027A000F801EB59FF4FD801D5968C91808301C079
:1027B000108228960FB6F894DEBF0FBECDBFDF9112
:1027C000CF911F910F910895CF93DF93EC010E9459
:1027D0006913CE010E947511CE01DF91CF910C9447
:1027E000F5122F923F924F925F926F927F928F924B
:1027F0009F92AF92BF92CF92DF92EF92FF920F9390
:102800001F93CF93DF93EC014C0129E6820E911CBC
:102810005C0136E6A30EB11CF5018081F4018083D2
:102820006E01FAE6CF0ED11C7E0127E6E20EF11C06
:10283000F7018081F60180832E01FBE64F0E511CCB
:102840001E0128E6220E311CF1018081F2018083F5
:10285000CE010E941F113E01F4E66F0E711CF301C0
:1028600080818E010E591F4FF801833021F0808145
:102870009181806203C0808191818F7D918380836B
:10288000CE010E94B210F3018081833041F53E01F8
:10289000F0E46F0E711CF30180819181892BF9F4B2
:1028A000B59680818530D8F0F80180819181837060
:1028B0009927892BA1F4CE010E94B60E68EE73E031
:1028C00080E090E00E94B80D81E090E0F3019183F8
:1028D0008083F801808191818F7E91838083FE01C6
:1028E000E459FF4F808181111EC0CE010E94E41384
:1028F000FE01E25BFF4F408151816281738134961A
:1029000080819181A281B38184179507A607B707BB
:1029100054F4DE01AB59BF4F8C91843020F04083DA
:10292000518362837383F4019081F50180819E015C
:10293000225A3F4F590198130CC0F6019081F701BC
:102940008081981306C0F2019081F101808198176F
:1029500031F0FE01EB59FF4F8081853068F4F501BD
:1029600080819181A281B3810196A11DB11D8083D7
:102970009183A283B3830BC0F5011082118212826E
:102980001382F801808191818C7F91838083F5018E
:1029900080819181A281B3810B97A105B1052CF1B2
:1029A000F8018081918183709927892BF1F4CE0100
:1029B0000E94C90F6DE770E080E090E00E94B80DC2
:1029C000CE010E94D80E6DE770E080E090E00E949A
:1029D000B80DF80180819181FE01E05CFF4F11820A
:1029E00010828161F80191838083F501808191815A
:1029F000A281B38185369105A105B10564F1F80185
:102A00008081918180FF27C081FD25C083609183F3
:102A100080838DEA93E00E94C81BCE010E94940E31
:102A20006DE770E080E090E00E94B80DCE01DF918C
:102A3000CF911F910F91FF90EF90DF90CF90BF90BB
:102A4000AF909F908F907F906F905F904F903F904E
:102A50002F900C94C90FDF91CF911F910F91FF9090
:102A6000EF90DF90CF90BF90AF909F908F907F902E
:102A70006F905F904F903F902F900895089580EE53
:102A800093E00E9469096093DC037093DD038093F7
:102A9000DE039093DF039B01AC010E94EE238823A9
:102AA00041F01092DC031092DD031092DE031092CD
:102AB000DF0380EE93E00E94110B20E030E048EC51
:102AC00052E40E9483216093D8037093D9038093CA
:102AD000DA039093DB039B01AC010E94EE23882371
:102AE00041F01092D8031092D9031092DA03109299
:102AF000DB0340E050E56DE774E480EE93E00E9474
:102B0000800D6093D4037093D5038093D603909384
:102B1000D7039B01AC010E94EE23882341F0109261
:102B2000D4031092D5031092D6031092D70380EEEF
:102B300093E00E94000A6093D0037093D1038093C6
:102B4000D2039093D3039B01AC010E94EE23882310
:102B500041F01092D0031092D1031092D203109240
:102B6000D3030895CF93DF93EC01198218821B825F
:102B70001A821C821D821E821F82188619861A865E
:102B80001B861D861C861F861E86198A188A1B8A2C
:102B90001A8A1D8A1C8A1F8A1E8A87E090E00E947A
:102BA0006B19998F888F1A8E82E193E09C8F8B8F9F
:102BB000DF91CF910895CF93DF9361E08AE00E9487
:102BC000881A61E08BE00E94881A61E08AE00E9426
:102BD000C41A60E08BE00E94C41A26E040E855E287
:102BE00060E070E081E194E00E94EE1761E173E043
:102BF00081E194E00E94451967E780EE93E00E942E
:102C00008008811108C068EE73E080E090E00E94C7
:102C1000E8190E94DB1581E290E00E946919EC013D
:102C200081E2FE0111928A95E9F7CE0102960E9497
:102C3000B21518A21F8ED093CF03C093CE038DE69A
:102C400090E00E946919EC010E942B10D093CD03F3
:102C5000C093CC038091CE039091CF030E949B033D
:102C60008091CE039091CF03DF91CF910C947F039D
:102C70000F931F93CF93DF93CDB7DEB7E2970FB6D5
:102C8000F894DEBF0FBECDBF64E670E080E090E058
:102C90000E94E8190E943F158091CC039091CD03CA
:102CA0000E94F1136091CC037091CD03CE014E963A
:102CB0000E94140E0E94B71900910A0110910B0195
:102CC00020910C0130910D01DC01CB01801B910B97
:102CD000A20BB30B81369A4EA105B10508F49AC038
:102CE0000E94B71960930A0170930B0180930C0145
:102CF00090930D018EA5882309F486C0CE0101961C
:102D00000E94B21582EC92E09A8F898F8BEC92E050
:102D10008B8F8EEC92E09D8F8C8F6091DC03709195
:102D2000DD038091DE039091DF030E94F5217C8B0F
:102D30006B8B6091D0037091D1038091D2039091FD
:102D4000D3030E94F5217E8B6D8B6091D803709127
:102D5000D9038091DA039091DB030E94F521788FEB
:102D60006F8B81E090E09A8389839C838B836E8D47
:102D70007F8D88A199A10E9433226D837E838F83EA
:102D800098876AA17BA18CA19DA10E9433226987AB
:102D90007A878B879C878FA590E09A8B898B8EA1F1
:102DA0009FA19E878D872091CE033091CF038DB751
:102DB0009EB74D970FB6F8949EBF0FBE8DBFADB7AF
:102DC000BEB711969DE1FE01319601900D929A9544
:102DD000E1F7C9010E9408068091CE039091CF03CC
:102DE0000E949B038091CE039091CF030E94A50384
:102DF0006BEE72E081E194E00E9457190FB6F894EF
:102E0000DEBF0FBECDBF06C062EF72E081E194E08D
:102E10000E945719E2960FB6F894DEBF0FBECDBFE1
:102E2000DF91CF911F910F9108950E94241A0E9463
:102E30003E150E94DB15C6E5D7E10E9438162097A3
:102E4000E1F30E945617F9CF80EE93E00C9443060D
:102E5000FC01918D228D892F90E0805C9F4F821B19
:102E600091098F7399270895FC01918D828D981790
:102E700031F0828DE80FF11D858D90E008958FEF80
:102E80009FEF0895FC01918D828D981761F0828DDE
:102E9000DF01A80FB11D5D968C91928D9F5F9F738E
:102EA000928F90E008958FEF9FEF089586EA98E162
:102EB000892B49F080E090E0892B29F00E94A61828
:102EC00081110C9400000895FC01848DDF01A80F8E
:102ED000B11DA35ABF4F2C91848D90E001968F7342
:102EE0009927848FA689B7892C93A089B1898C9161
:102EF00080648C93938D848D981306C00288F38927
:102F0000E02D80818F7D80830895CF93DF93EC0146
:102F1000888D8823C9F0EA89FB89808185FD05C0F9
:102F2000A889B9898C9186FD0FC00FB607FCF5CF33
:102F3000808185FFF2CFA889B9898C9185FFEDCF7B
:102F4000CE010E946417E7CFDF91CF910895EF92F1
:102F5000FF920F931F93CF93DF93EC0181E0888F53
:102F60009B8D8C8D981305C0E889F989808185FD3A
:102F700024C0F62E0B8D10E00F5F1F4F0F7311272B
:102F8000E02E8C8DE8120CC00FB607FCFACFE88952
:102F9000F989808185FFF5CFCE010E946417F1CFBA
:102FA0008B8DFE01E80FF11DE35AFF4FF0820B8F6E
:102FB000EA89FB898081806207C0EE89FF8960838E
:102FC000E889F98980818064808381E090E0DF91E5
:102FD000CF911F910F91FF90EF900895CF92DF92C4
:102FE000EF92FF921F93CF93DF93EC016A017B0175
:102FF000122F60E874E88EE190E0A70196010E942C
:103000006025DA01C9010197A109B109B695A79513
:1030100097958795AC01E889F98982E0808341150D
:1030200080E15807A8F0E889F989108260E472E429
:103030008FE090E0A70196010E946025BA01A901E6
:1030400041505109610971097695679557954795E2
:10305000EC85FD855083EE85FF854083188EEC89D5
:10306000FD891083EA89FB89808180618083EA89F8
:10307000FB89808188608083EA89FB898081806800
:103080008083EA89FB8980818F7D8083DF91CF9166
:103090001F91FF90EF90DF90CF9008951F920F92B5
:1030A0000FB60F9211242F938F939F93EF93FF935B
:1030B000E0912104F09122048081E0912704F091B5
:1030C000280482FD12C0908180912A048F5F8F7343
:1030D00020912B04821751F0E0912A04F0E0EF5E7A
:1030E000FB4F958F80932A0401C08081FF91EF915F
:1030F0009F918F912F910F900FBE0F901F90189559
:103100001F920F920FB60F9211242F933F934F935C
:103110005F936F937F938F939F93AF93BF93EF933F
:10312000FF9381E194E00E946417FF91EF91BF91BA
:10313000AF919F918F917F916F915F914F913F914F
:103140002F910F900FBE0F901F90189581E194E082
:103150000E94281721E0892B09F420E0822F08958E
:10316000E1E1F4E01382128288EE93E0A0E0B0E0A7
:1031700084839583A683B78384E093E091838083DF
:1031800085EC90E09587848784EC90E0978786872C
:1031900080EC90E0918B808B81EC90E0938B828B24
:1031A00082EC90E0958B848B86EC90E0978B868BFD
:1031B000118E128E138E148E0895CF92DF92EF929D
:1031C000FF920F931F93CF93DF936C017A018B01D2
:1031D000C0E0D0E0CE15DF0589F0D8016D918D01FA
:1031E000D601ED91FC910190F081E02DC601099589
:1031F000892B11F47E0102C02196ECCFC701DF912B
:10320000CF911F910F91FF90EF90DF90CF90089595
:103210006115710579F0FB0101900020E9F7319704
:10322000AF01461B570BDC01ED91FC910280F3814D
:10323000E02D099480E090E00895EF92FF920F93C3
:103240001F93CF93DF938C017B01C0E0D0E0F701A7
:10325000EC0FFD1F6491662361F0D801ED91FC91A4
:103260000190F081E02DC8010995892B11F021967C
:10327000EECFCE01DF91CF911F910F91FF90EF9094
:10328000089560E173E00C9408190F931F93CF9396
:10329000DF93EC010E941D198C01CE010E9441199F
:1032A000800F911FDF91CF911F910F9108950F9380
:1032B0001F93CF93DF93EC010E9408198C01CE017C
:1032C0000E944119800F911FDF91CF911F910F91A3
:1032D00008950C9455270C9455271F920F920FB602
:1032E0000F9211242F933F938F939F93AF93BF938C
:1032F0008091AF049091B004A091B104B091B20458
:103300003091AE0426E0230F2D3720F40296A11D44
:10331000B11D05C029E8230F0396A11DB11D2093FF
:10332000AE048093AF049093B004A093B104B09323
:10333000B2048091B3049091B404A091B504B0910B
:10334000B6040196A11DB11D8093B3049093B404FB
:10335000A093B504B093B604BF91AF919F918F91A4
:103360003F912F910F900FBE0F901F9018952FB780
:10337000F8946091AF047091B0048091B104909181
:10338000B2042FBF08953FB7F8948091B304909191
:10339000B404A091B504B091B60426B5A89B05C0AD
:1033A0002F3F19F00196A11DB11D3FBFBA2FA92FC4
:1033B000982F8827820F911DA11DB11DBC01CD0141
:1033C00043E0660F771F881F991F4A95D1F708952C
:1033D0008F929F92AF92BF92CF92DF92EF92FF9225
:1033E0006B017C010E94C3194B015C01C114D10423
:1033F000E104F10401F10E9415210E94C319DC01CE
:10340000CB0188199909AA09BB09883E9340A105F7
:10341000B10560F321E0C21AD108E108F10888EE95
:10342000880E83E0981EA11CB11CC114D104E104D4
:10343000F10419F7DBCFFF90EF90DF90CF90BF90B2
:10344000AF909F908F900895789484B5826084BDEA
:1034500084B5816084BD85B5826085BD85B5816098
:1034600085BDEEE6F0E0808181608083E1E8F0E0F8
:103470001082808182608083808181608083E0E827
:10348000F0E0808181608083E1EBF0E08081846006
:103490008083E0EBF0E0808181608083EAE7F0E008
:1034A00080818460808380818260808380818E7F40
:1034B00080838081806880831092C100089583306A
:1034C00081F028F4813099F08230A1F0089587309E
:1034D000A9F08830B9F08430D1F4809180008F7DDC
:1034E00003C0809180008F7780938000089584B519
:1034F0008F7702C084B58F7D84BD08958091B00020
:103500008F7703C08091B0008F7D8093B0000895C5
:10351000CF93DF9390E0FC01E05DFC4F2491FC0130
:10352000EC5BFC4F8491882361F190E0880F991F38
:10353000FC01E459FC4FC591D491FC01EE59FC4FBC
:10354000A591B491611109C09FB7F8948881209525
:1035500082238883EC912E230BC0623061F49FB7E5
:10356000F8943881822F809583238883EC912E2BC9
:103570002C939FBF06C08FB7F894E8812E2B288329
:103580008FBFDF91CF9108951F93CF93DF93282FA3
:1035900030E0F901E45EFC4F8491F901E05DFC4FFD
:1035A000D491F901EC5BFC4FC491CC23C9F0162FE8
:1035B00081110E945F1AEC2FF0E0EE0FFF1FEE5911
:1035C000FC4FA591B4918FB7F894111105C09C914F
:1035D000ED2FE095E92302C0EC91ED2BEC938FBF2A
:1035E000DF91CF911F910895CF93DF93282F30E083
:1035F000F901E45EFC4F8491F901E05DFC4FD49148
:10360000F901EC5BFC4FC491CC2391F081110E9435
:103610005F1AEC2FF0E0EE0FFF1FE85AFC4FA59168
:10362000B491EC91ED2381E090E021F480E002C0C0
:1036300080E090E0DF91CF910895CF93CFB7F894D9
:103640008091BA04811127C0EEE4F3E08491EAE3AB
:10365000F3E09491E82FF0E0EE0FFF1FE459FC4FE8
:10366000A591B491EC91E92321F461E08AE00E94F4
:10367000C41A61E08AE00E94881A8CB580618CBD12
:103680008CB580648CBD61E08DE00E94881A61E099
:103690008BE00E94881A8091BA048F5F8093BA04ED
:1036A000CFBFCF9108952091FD043091FE042817DB
:1036B0003907B9F49091BB048091BC04981789F044
:1036C000E091BB04F0E0E354FB4F80812091BB0408
:1036D00030E02F5F3F4F2F7333272093BB0490E0E0
:1036E00008958FEF9FEF08951F93CF93DF93DC0131
:1036F0005C962D913C915D972115310539F481E05F
:1037000090E013969C938E9312973DC05196ED9145
:10371000FC91529750969C915097892F80951FB796
:103720005E964C915E9741FB772770F941FD60955D
:10373000F8944081772311F0492B01C0482340833E
:10374000E9012197F1F748E0508160FF02C0592B51
:1037500001C058235083E9012197F1F76695415044
:1037600099F7772321F090818923808303C080819A
:10377000982B90831FBF5C968D919C915D970197CC
:10378000F1F721E030E0C901DF91CF911F91089559
:1037900008952091FD043091FE042817390771F433
:1037A0009091BB048091BC04981741F0E091BB0458
:1037B000F0E0E354FB4F808190E008958FEF9FEF9E
:1037C00008952091FD043091FE042817390771F403
:1037D0008091BC042091BB0490E0805C9F4F821BD1
:1037E000910960E470E00E944C25089580E090E02B
:1037F0000895E091FD04F091FE04E817F90769F4DB
:10380000A389B4899C918589809589238C93109292
:10381000FE041092FD0481E0089580E00895CF93A6
:10382000DF93EC018A8D9B8D892BF1F08091FD0453
:103830009091FE048C179D07B9F0009711F00E943B
:10384000F91B8E8D8E7F8E8F1092BC041092BB045C
:10385000D093FE04C093FD04EB89FC8990818D898F
:10386000892B808381E001C080E0DF91CF910895B2
:103870001F920F920FB60F9211242F933F934F93E5
:103880005F936F937F938F939F93AF93BF93EF93C8
:10389000FF93E091FD04F091FE04309709F451C0CC
:1038A000968DA685B785858591FF04C09C91892357
:1038B00029F447C09C91892309F043C0A389B489A6
:1038C0009C918589809589238C9386899789019716
:1038D000F1F7608D718DA685B785558538E020E0BC
:1038E000CB010197F1F7822F90E095958795282FCE
:1038F0004C91452309F02068315091F7868D81FD68
:1039000020958091BC0490E001968F7399273091A7
:10391000BB04381749F0A091BC04B0E0A354BB4FDE
:103920002C938093BC0403C0868D8160868F828D2A
:10393000938D0197F1F7A389B4899C918589892B8F
:103940008C93FF91EF91BF91AF919F918F917F9158
:103950006F915F914F913F912F910F900FBE0F90FC
:103960001F90189523E233E0FC01318320830C94EF
:10397000F91B1F93CF93DF93EC01162F6E8D669585
:10398000617081E06827812F0E94C41A61E0812F55
:103990000E94881A612F70E0FB01E05DFC4FE4910A
:1039A000E88BFB01EC5BFC4FE491F0E0EE0FFF1FB6
:1039B000EE59FC4F859194919A8B898BDF91CF9131
:1039C0001F9108951F93CF93DF93EC01162F60E0B2
:1039D000812F0E94881A8E8D81FD04C061E0812FA5
:1039E0000E94C41A1C87612F70E0FB01E05DFC4F50
:1039F000E491ED87FB01EC5BFC4FE491F0E0EE0F0E
:103A0000FF1FE85AFC4F859194919F878E87DF9125
:103A1000CF911F9108951F93CF93DF93EC01162F41
:103A20001B821A8288EE93E0A0E0B0E08C839D8335
:103A3000AE83BF8383E293E0998388831F8A1E8AC3
:103A4000198E188E1B8E1A8E1D8E1C8E8E8D8E7F5B
:103A500020FB81F98E8F642FCE010E94B91C612F4B
:103A6000CE01DF91CF911F910C94E21CCF93DF9395
:103A7000EC019A01AB011B8E1A8E198E188E1F8ACB
:103A80001E8A60E874E88EE190E00E948225F901C8
:103A90002430310518F0C901039702C081E090E09D
:103AA0009D8F8C8F6C85663108F069C0C901969531
:103AB00087958431910510F0439702C081E090E032
:103AC0009F8B8E8B369718F0C901059702C081E055
:103AD00090E0998F888FC901880F991F280F391F8F
:103AE00036952795369527952D30310518F02C50B1
:103AF000310902C021E030E03B8F2A8F90916800AD
:103B0000683050F021E06E3008F420E081E001C020
:103B1000880F2A95EAF701C084E0892B809368001A
:103B20008C85883038F08E3040F0863148F020E0C7
:103B300030E008C02DE630E005C02BE630E002C0E2
:103B40002CE630E03C8B2B8B883030F491E001C0C8
:103B5000990F8A95EAF70EC0282F30E08E3018F4BE
:103B60002850310902C02E50310991E001C0990F4F
:103B70002A95EAF79D8B8C8D9D8D0197F1F7CE01EB
:103B8000DF91CF910C940F1C80912F0590E0209134
:103B90003005821B910908959091300580912F0581
:103BA000981750F4E92FF0E0EF5CFA4F208130E0F5
:103BB0009F5F9093300502C02FEF3FEFC90108953A
:103BC000E091300580912F05E81730F4F0E0EF5CCC
:103BD000FA4F808190E008958FEF9FEF0895089548
:103BE000CF92DF92EF92FF920F931F93CF93DF93C9
:103BF0007C01262F972F8A0180910B05882391F055
:103C0000C62FD72F6E01C40ED51ECC15DD0571F061
:103C10006991D701ED91FC910190F081E02DC701F0
:103C20000995F3CF642F822F0E94B01FC801DF9146
:103C3000CF911F910F91FF90EF90DF90CF9008955B
:103C4000CF93DF931F92CDB7DEB7698320910B0529
:103C50002223D1F020910C05203240F021E030E009
:103C6000FC013383228380E090E015C080910D0534
:103C7000E82FF0E0E25FFA4F998190838F5F8093A5
:103C80000D0580930C0505C061E0CE0101960E94F0
:103C9000B01F81E090E00F90DF91CF910895FC017B
:103CA0001382128288EE93E0A0E0B0E084839583D3
:103CB000A683B78383E393E0918380830895109272
:103CC000300510922F0510920D0510920C050C94E2
:103CD000F41E81E080930B0560932E0510920D0574
:103CE00010920C0508950F93062F21E040910C05CA
:103CF0006EE075E080912E050E945A1F10920D050E
:103D000010920C0510920B050F9108954F925F923F
:103D10006F927F92AF92BF92CF92EF92FF920F93EA
:103D20001F93CF93DF935C01F62ED42F2801390126
:103D3000EE2021F10E94691ECE2DC43008F0C3E0B0
:103D4000C150C0F0D501ED91FC91B8E0CB9FC0010E
:103D50001124A301920104C05695479537952795E4
:103D60008A95D2F7CA01B9010190F081E02DC50111
:103D70000995E6CF60E0C5010E94731E4D2FD13238
:103D800008F040E22C2D61E375E08F2D0E94121F98
:103D90001092300580932F05DF91CF911F910F91E5
:103DA000FF90EF90CF90BF90AF907F906F905F901B
:103DB0004F900895CF92EF920F931F93C22EE12C54
:103DC00000E010E098010E94861E1F910F91EF9075
:103DD000CF90089521E00C94DA1E61E00C94731EDC
:103DE0008FEF94E00C944F1E1092BE0581E08093FB
:103DF000BC051092BB0561E082E10E94C41A61E03B
:103E000083E10E94C41AE9EBF0E080818E7F808319
:103E100080818D7F808380E28093B80085E48093E9
:103E2000BC000895413208F043C09091BE05911145
:103E3000FCCF91E09093BE052093BC052FEF20931B
:103E4000510510929605240F209395059093BD057A
:103E50009091BD05880F892B8093BD058091BB058E
:103E6000813061F41092BB058091BD058093BB0049
:103E70008091BC0083FDF8CF85EC01C085EE809376
:103E8000BC008091BE058130E1F3809196058417D6
:103E900010F44091960527E935E0FB01D9018A2FFE
:103EA000821B841718F48D918193F9CF842F089584
:103EB00080E008950F93413208F04AC09091BE050A
:103EC0009111FCCF32E03093BE050093BC053FEF6B
:103ED000309351051092960540939505FB0167E9D3
:103EE00075E0DB013A2F361B341718F431913D93FE
:103EF000F9CF1092BD053091BD05880F832B8093BB
:103F0000BD058091BB05813061F41092BB058091A5
:103F1000BD058093BB008091BC0083FDF8CF85EC8C
:103F200001C085EE8093BC00222321F08091BE0564
:103F30008230D1F3809151058F3F79F08091510506
:103F4000803241F080915105803331F094E005C01A
:103F500091E003C092E001C093E0892F0F91089592
:103F600040917305262F30E0240F311D2132310599
:103F7000DCF42091BE052430C9F4FC0180E090E01F
:103F8000861758F4309173052191DC01AB58BA4F74
:103F9000A30FB11D2C930196F3CF80917305680F89
:103FA0006093730580E0089581E0089582E00895AC
:103FB00085ED8093BC008091BC0084FDFCCF109205
:103FC000BE05089585EC8093BC001092BE0508954F
:103FD0001F920F920FB60F9211242F933F934F937E
:103FE0005F936F937F938F939F93AF93BF93EF9361
:103FF000FF938091B900887F803609F49EC078F5E0
:10400000883209F45DC090F4803109F456C038F468
:10401000882309F4F5C0883009F44FC0F5C0883111
:1040200009F44EC0803209F45FC0EEC0803409F458
:104030006AC058F4803309F457C0883309F0E4C0EB
:10404000809351050E94E21FDFC0803509F44FC004
:10405000883509F45DC0883409F0D6C0D3C08839EA
:1040600009F4C4C0A8F4883709F467C038F4883666
:1040700009F463C0803709F460C0C6C0883809F409
:10408000B5C0803909F45FC0803809F0BDC05BC09D
:10409000803B09F483C038F4803A09F466C0883A5A
:1040A00009F47CC0B1C0803C09F4A4C0883C09F488
:1040B000A1C0883B09F487C0A7C08091BD0510C08E
:1040C0009091960580919505981770F5E091960569
:1040D00081E08E0F80939605F0E0E956FA4F8081DB
:1040E0008093BB0085EC83C0809351058BC0E09129
:1040F000960581E08E0F809396058091BB00F0E0DD
:10410000E956FA4F808390919605809195056BC092
:10411000E091960581E08E0F809396058091BB001B
:10412000F0E0E956FA4F80838091BC0581116AC0A6
:1041300081E08093BB0584EA5EC083E08093BE0586
:1041400010925205CFCF80915205803208F04EC0B8
:10415000E091520581E08E0F809352058091BB0063
:10416000F0E0ED5AFA4F8083BDCF0E94E21F8091AC
:104170005205803230F4E0915205F0E0ED5AFA4FEA
:1041800010826091520570E0E091B705F091B8059A
:1041900083E595E009951092520536C084E080933E
:1041A000BE051092740510927305E091B905F09167
:1041B000BA05099580917305811105C081E080934E
:1041C000730510927505E091740581E08E0F809360
:1041D0007405F0E0EB58FA4F80818093BB0090911A
:1041E000740580917305981708F47CCF85E8809357
:1041F000BC000AC085EC8093BC001092BE0504C0D0
:10420000109251050E94D81FFF91EF91BF91AF917D
:104210009F918F917F916F915F914F913F912F91DE
:104220000F900FBE0F901F90189508955058BB2700
:10423000AA270E942E210C94F7220E94E92238F02E
:104240000E94F02220F039F49F3F19F426F40C94D8
:10425000D6220EF4E095E7FB0C94D022E92F0E94C1
:10426000082358F3BA17620773078407950720F0ED
:1042700079F4A6F50C942A230EF4E0950B2EBA2FB0
:10428000A02D0B01B90190010C01CA01A00111245C
:10429000FF27591B99F0593F50F4503E68F11A1608
:1042A000F040A22F232F342F4427585FF3CF469599
:1042B00037952795A795F0405395C9F77EF41F16BB
:1042C000BA0B620B730B840BBAF09150A1F0FF0F85
:1042D000BB1F661F771F881FC2F70EC0BA0F621F71
:1042E000731F841F48F4879577956795B795F79561
:1042F0009E3F08F0B0CF9395880F08F09927EE0FF6
:104300009795879508950E9497210C94F7220E9413
:10431000F02258F00E94E92240F029F45F3F29F092
:104320000C94D02251110C942B230C94D6220E9471
:10433000082368F39923B1F3552391F3951B550B8B
:10434000BB27AA2762177307840738F09F5F5F4F68
:10435000220F331F441FAA1FA9F335D00E2E3AF0A7
:10436000E0E832D091505040E695001CCAF72BD0BF
:10437000FE2F29D0660F771F881FBB1F2617370710
:104380004807AB07B0E809F0BB0B802DBF01FF2742
:1043900093585F4F3AF09E3F510578F00C94D0222D
:1043A0000C942B235F3FE4F3983ED4F386957795E6
:1043B0006795B795F7959F5FC9F7880F911D9695FB
:1043C000879597F90895E1E0660F771F881FBB1F57
:1043D000621773078407BA0720F0621B730B840B04
:1043E000BA0BEE1F88F7E09508950E94FC216894AF
:1043F000B1110C942B2308950E94102388F09F572D
:1044000098F0B92F9927B751B0F0E1F0660F771FF8
:10441000881F991F1AF0BA95C9F714C0B13091F0EE
:104420000E942A23B1E008950C942A23672F782F45
:104430008827B85F39F0B93FCCF3869577956795B3
:10444000B395D9F73EF490958095709561957F4F1F
:104450008F4F9F4F089597FB16F40E94D9220C941A
:104460006F22E89409C097FB3EF490958095709573
:1044700061957F4F8F4F9F4F9923A9F0F92F96E9B0
:10448000BB279395F695879577956795B795F11125
:10449000F8CFFAF4BB0F11F460FF1BC06F5F7F4FC2
:1044A0008F4F9F4F16C0882311F096E911C07723D4
:1044B00021F09EE8872F762F05C0662371F096E8DD
:1044C000862F70E060E02AF09A95660F771F881FAC
:1044D000DAF7880F9695879597F90895E894F92F5C
:1044E00096EBFF2381F0121613061406440B9395E6
:1044F000F69587957795679557954040FF23B9F7CF
:104500001BC099270895882351F49850D2F7872B20
:10451000762F652F542F432F322F20E0B1F3121640
:1045200013061406440B88233AF09A95440F551F3E
:10453000661F771F881FCAF755234AF4440F551F7B
:1045400011F460FF04C06F5F7F4F8F4F9F4F880F44
:104550009695879597F90895990F0008550FAA0B1E
:10456000E0E8FEEF16161706E807F907C0F0121686
:104570001306E407F50798F0621B730B840B950B89
:1045800039F40A2661F0232B242B252B21F40895DE
:104590000A2609F4A140A6958FEF811D811D08957B
:1045A00097F99F6780E870E060E008959FEF80ECE6
:1045B00008959095809570956095509540953095AB
:1045C00021953F4F4F4F5F4F6F4F7F4F8F4F9F4F03
:1045D000089500240A941616170618060906089569
:1045E00000240A9412161306140605060895092ECF
:1045F0000394000C11F4882352F0BB0F40F4BF2B3E
:1046000011F460FF04C06F5F7F4F8F4F9F4F08957D
:1046100057FD9058440F551F59F05F3F71F0479573
:10462000880F97FB991F61F09F3F79F08795089558
:10463000121613061406551FF2CF4695F1DF08C077
:10464000161617061806991FF1CF86957105610594
:1046500008940895E894BB2766277727CB0197F93C
:1046600008950E9444230C94F7220E94E92238F016
:104670000E94F02220F0952311F00C94D0220C948B
:10468000D62211240C942B230E94082370F3959FAB
:10469000C1F3950F50E0551F629FF001729FBB2739
:1046A000F00DB11D639FAA27F00DB11DAA1F649FD5
:1046B0006627B00DA11D661F829F2227B00DA11D88
:1046C000621F739FB00DA11D621F839FA00D611D0E
:1046D000221F749F3327A00D611D231F849F600D2F
:1046E000211D822F762F6A2F11249F5750409AF058
:1046F000F1F088234AF0EE0FFF1FBB1F661F771FE4
:10470000881F91505040A9F79E3F510580F00C94AE
:10471000D0220C942B235F3FE4F3983ED4F386958C
:1047200077956795B795F795E7959F5FC1F7FE2B4E
:10473000880F911D9695879597F90895FA01EE0FC8
:10474000FF1F309621053105A1F16115710561F456
:104750008038BFE39B0749F168949038810561F088
:104760008038BFEF9B0741F099234AF5FF3FE105F1
:104770003105210519F1E8940894E795D901AA2398
:1047800029F4AB2FBE2FF85FD0F310C0FF5F70F499
:10479000A695E0F7F73950F019F0FF3A38F49F7713
:1047A0009F930DD00F9007FC9058089546F00C94FD
:1047B000D62260E070E080E89FE308954FE79F779E
:1047C0005F934F933F932F930E949E242F913F918D
:1047D0004F915F910E9431230C94FB230E94AC22E5
:1047E000880B990B089529F416F00C94D0220C94A0
:1047F0002A230C94D6220E941023A8F39638A0F7FF
:1048000007F80F92E8942BE33AEA48EB5FE70E943F
:1048100047230F920F920F924DB75EB70F920E94EF
:10482000E624E8E6F0E00E942D244F915F91EF919D
:10483000FF91E595EE1FFF1F49F0FE57E068442702
:10484000EE0F441FFA95E1F74195550B0E94602445
:104850000F9007FE0C9454240895DF93CF931F9379
:104860000F93FF92EF92DF927B018C01689406C058
:10487000DA2EEF010E944423FE01E894A5912591D0
:10488000359145915591A6F3EF010E942E21FE012D
:104890009701A801DA9469F7DF90EF90FF900F91EC
:1048A0001F91CF91DF9108959B01AC0160E070E012
:1048B00080E89FE30C9483210C94D0220C941A2559
:1048C0000E941023D8F39923C9F3940F511DA3F329
:1048D0009150504094F059F0882332F0660F771FC2
:1048E000881F91505040C1F79E3F51052CF7880F0B
:1048F000911D9695879597F908955F3FACF0983E86
:104900009CF0BB27869577956795B79508F4B160BD
:104910009395C1F7BB0F58F711F460FFE8CF6F5FB5
:104920007F4F8F4F9F4FE3CF0C942B2316F00C94A7
:104930001A250C94D62268940C94D0220E9410233D
:10494000A8F39923C1F3AEF3DF93CF931F930F9393
:10495000FF92C92FDD2788232AF02197660F771F42
:10496000881FDAF720E030E040E85FEB9FE388390A
:1049700020F0803E38F021968F770E941721E0E9E1
:10498000F0E004C00E941721EDEBF0E00E942D241E
:104990008B01BE01EC01FB2E6F5771097595771FD6
:1049A000880B990B0E94332228E132E741E35FE351
:1049B0000E944423AF2D9801AE01FF900F911F91EB
:1049C000CF91DF910E942E210C94F722FA01DC0195
:1049D000AA0FBB1F9B01AC01BF5728F42227332726
:1049E0004427507820C0B75190F4AB2F002446954F
:1049F00037952795011CA395D2F3002071F0220F63
:104A0000331F441FB395DAF30ED00C941621613096
:104A10007105A0E88A07B94630F49B01AC0166270E
:104A2000772788279078309621F02083318342833E
:104A3000538308959F3F31F0915020F487957795E7
:104A40006795B795880F911D9695879597F9089565
:104A5000DB018F939F930E94A825BF91AF91A29FE6
:104A6000800D911DA39F900DB29F900D112408956C
:104A7000AA1BBB1B51E107C0AA1FBB1FA617B70784
:104A800010F0A61BB70B881F991F5A95A9F78095A0
:104A90009095BC01CD01089597FB072E16F4009464
:104AA00007D077FD09D00E94382507FC05D03EF4D9
:104AB000909581959F4F0895709561957F4F0895CA
:104AC000A1E21A2EAA1BBB1BFD010DC0AA1FBB1F12
:104AD000EE1FFF1FA217B307E407F50720F0A21B84
:104AE000B30BE40BF50B661F771F881F991F1A94F1
:104AF00069F760957095809590959B01AC01BD011B
:104B0000CF010895052E97FB1EF400940E9499256D
:104B100057FD07D00E94602507FC03D04EF40C948B
:104B2000992550954095309521953F4F4F4F5F4FB8
:104B3000089590958095709561957F4F8F4F9F4F09
:104B400008950E944627B7FF0895821B930B08958E
:104B50000E944627A59F900DB49F900DA49F800DA5
:104B6000911D11240895B7FF0C94A8250E94A82533
:104B7000821B930B0895DF93CF931F930F939A9DFE
:104B8000F02D219FF00D8B9DF00D8A9DE02DF10DF4
:104B9000039FF00D029FE00DF11D4E9DE00DF11DF4
:104BA0005E9DF00D4F9DF00D7F936F93BF92AF927E
:104BB0005F934F93D5010E9446278B01AC01D7012B
:104BC0000E944627EB01E80FF91FD6010E940B2631
:104BD0002F913F91D6010E944627C60FD71FE81F8D
:104BE000F91FAF91BF910E940B262F913F910E9418
:104BF0004627C60FD71FE81FF91FD6010E94462778
:104C0000E60FF71F9801BE01CF0111240F911F91EC
:104C1000CF91DF9108950E944627460F571FC81F66
:104C2000D91F08F431960895689401C0E894F92FCB
:104C3000F12B12F00C944826A0E0B0E0E2E2F6E29C
:104C40000C94BA26092E059422F40E94A42611235E
:104C500092F4F0E80F26FFEFE094F09400951095A1
:104C6000B094C094D094A194BF0ACF0ADF0AEF0A8F
:104C7000FF0A0F0B1F0B0E94532607FC0E94A4265D
:104C8000CDB7DEB7ECE00C94D626689401C0E8946A
:104C90008F929F92CF93DF930E945326DF91CF9103
:104CA0009F908F90089588249924F401E401B0E442
:104CB0009F93AA279A158B049C04ED05FE05CF054A
:104CC000D007A10798F4AD2FDC2FCF2FFE2FE92DB1
:104CD000982C892E982F872F762F652F542F432FAE
:104CE000322F2227B85031F7BF9127C01B2EBF911A
:104CF000BB27220F331F441F551F661F771F881FB6
:104D0000991F881C991CEE1FFF1FCC1FDD1FAA1FB7
:104D1000BB1F8A149B04EC05FD05CE05DF05A0072B
:104D2000B10748F08A189B08EC09FD09CE09DF0994
:104D3000A00BB10B21601A94E1F62EF49401AF019F
:104D4000BE01CD01000C08956095709580959095F9
:104D500030954095509521953F4F4F4F5F4F6F4F86
:104D60007F4F8F4F9F4F08952F923F924F925F92A8
:104D70006F927F928F929F92AF92BF92CF92DF926B
:104D8000EF92FF920F931F93CF93DF93CDB7DEB7D0
:104D9000CA1BDB0B0FB6F894DEBF0FBECDBF099464
:104DA0002A88398848885F846E847D848C849B84BB
:104DB000AA84B984C884DF80EE80FD800C811B81C9
:104DC000AA81B981CE0FD11D0FB6F894DEBF0FBEF8
:104DD000CDBFED0108950F93083090F0982F872FE5
:104DE000762F652F542F432F322F22270850F4CFD0
:104DF000220F331F441F551F661F771F881F991FDF
:104E00000A95B2F70F91089597FB10F816940008D1
:104E10000F93083098F00850232F342F452F562F2A
:104E2000672F782F892F902DF4CF0594979587952C
:104E30007795679557954795379527950A95AAF7DA
:104E40000F9108952A0D3B1D4C1D5D1D6E1D7F1D8C
:104E5000801F911F08952A193B094C095D096E09AD
:104E60007F09800B910B08950024A7FD00942A1759
:104E700030054005500560057005800590050895D2
:104E8000EE0FFF1F0590F491E02D0994A29FB00151
:104E9000B39FC001A39F700D811D1124911DB29F6E
:104EA000700D811D1124911D0895CF93DF938230E1
:104EB000910510F482E090E0E091C105F091C20507
:104EC00020E030E0C0E0D0E0309711F14081518126
:104ED00048175907C0F04817590761F48281938138
:104EE000209719F09B838A832BC09093C2058093EF
:104EF000C10526C02115310519F04217530718F4D2
:104F00009A01BE01DF01EF010280F381E02DDCCFC9
:104F10002115310509F1281B390B2430310590F496
:104F200012968D919C9113976115710521F0FB01EB
:104F30009383828304C09093C2058093C105FD01D1
:104F4000329644C0FD01E20FF31F819391932250EA
:104F500031092D933C933AC02091BF053091C00593
:104F6000232B41F420910201309103013093C005BD
:104F70002093BF05209100013091010121153105D9
:104F800041F42DB73EB74091040150910501241B17
:104F9000350BE091BF05F091C005E217F307A0F4CF
:104FA0002E1B3F0B2817390778F0AC014E5F5F4F7F
:104FB0002417350748F04E0F5F1F5093C0054093EC
:104FC000BF058193919302C0E0E0F0E0CF01DF9153
:104FD000CF9108950F931F93CF93DF93009709F418
:104FE0008CC0FC013297138212820091C10510918E
:104FF000C2050115110581F420813181820F931FB3
:105000002091BF053091C0052817390779F5F09335
:10501000C005E093BF0571C0D80140E050E0AE1775
:10502000BF0750F412962D913C911397AD012115B5
:10503000310509F1D901F3CF9D01DA0133832283D0
:1050400060817181860F971F8217930769F4EC01C5
:1050500028813981260F371F2E5F3F4F31832083F0
:105060008A819B8193838283452B29F4F093C20527
:10507000E093C10542C01396FC93EE931297ED01A5
:10508000499159919E01240F351FE217F30771F4DE
:1050900080819181840F951F029611969C938E9327
:1050A0008281938113969C938E931297E0E0F0E0B7
:1050B000D80112968D919C911397009719F0F801E1
:1050C0008C01F6CF8D919C9198012E5F3F4F820FFE
:1050D000931F2091BF053091C0052817390769F447
:1050E000309729F41092C2051092C10502C01382B4
:1050F00012821093C0050093BF05DF91CF911F91DD
:105100000F910895FB01DC014150504048F005909B
:105110000D920020C9F701C01D9241505040E0F7A8
:105120000895AEE0B0E0E7E9F8E20C94C2260D89FC
:105130001E898F89988D2EE02C831A83098397FF0F
:1051400002C080E090E801979E838D83AE01455EAA
:105150005F4F698D7A8DCE0101960E94ED284D81B9
:105160005E8157FD0AC02F813885421753070CF422
:105170009A01F801E20FF31F10822E96E4E00C94DE
:10518000DE26AEE0B0E0E7ECF8E20C94C2268C013B
:10519000CA0146E04C831A83098377FF02C060E0AE
:1051A00070E8FB013197FE83ED83A901BC01CE01BC
:1051B00001960E94ED284D815E8157FD0AC02F8126
:1051C0003885421753070CF49A01F801E20FF31FD8
:1051D00010822E96E4E00C94DE26ACE0B0E0E3EF23
:1051E000F8E20C94B4267C016B018A01FC01178261
:1051F0001682838181FFBDC1CE0101964C01F7016A
:105200009381F60193FD859193FF81916F0188232E
:1052100009F4ABC1853239F493FD859193FF8191F7
:105220006F01853229F4B70190E00E94D52AE7CFBB
:10523000512C312C20E02032A0F48B3269F030F474
:10524000803259F0833269F420612CC08D3239F0FC
:10525000803339F4216026C02260246023C0286096
:1052600021C027FD27C030ED380F3A3078F426FFF3
:1052700006C0FAE05F9E300D1124532E13C08AE061
:10528000389E300D1124332E20620CC08E3221F452
:1052900026FD6BC1206406C08C3611F4206802C064
:1052A000883641F4F60193FD859193FF81916F015A
:1052B0008111C1CF982F9F7D9554933028F40C5FB6
:1052C0001F4FFFE3F9830DC0833631F0833771F050
:1052D000833509F05BC022C0F801808189830E5FAD
:1052E0001F4F44244394512C540115C03801F2E05F
:1052F0006F0E711CF801A080B18026FF03C0652DE0
:1053000070E002C06FEF7FEFC5012C870E94CA2AB0
:105310002C0183012C852F77222E17C03801F2E053
:105320006F0E711CF801A080B18026FF03C0652DAF
:1053300070E002C06FEF7FEFC5012C870E94BF2A8B
:105340002C012C852068222E830123FC1BC0832D79
:1053500090E048165906B0F4B70180E290E00E9450
:10536000D52A3A94F4CFF50127FC859127FE819147
:105370005F01B70190E00E94D52A31103A94F1E024
:105380004F1A51084114510471F7E5C0843611F0E9
:10539000893639F5F80127FF07C060817181828164
:1053A00093810C5F1F4F08C060817181072E000C34
:1053B000880B990B0E5F1F4F2F76722E97FF09C037
:1053C00090958095709561957F4F8F4F9F4F206886
:1053D000722E2AE030E0A4010E940D2BA82EA818FE
:1053E00044C0853729F42F7EB22E2AE030E025C054
:1053F000F22FF97FBF2E8F36C1F018F4883579F07F
:10540000B4C0803719F0883721F0AFC02F2F20614A
:10541000B22EB4FE0DC08B2D8460B82E09C024FFBF
:105420000AC09F2F9660B92E06C028E030E005C064
:1054300020E130E002C020E132E0F801B7FE07C011
:1054400060817181828193810C5F1F4F06C06081F2
:10545000718180E090E00E5F1F4FA4010E940D2B30
:10546000A82EA818FB2DFF777F2E76FE0BC0372DB8
:105470003E7FA51450F474FE0AC072FC08C0372D9C
:105480003E7E05C0BA2C372D03C0BA2C01C0B52C06
:1054900034FF0DC0FE01EA0DF11D8081803311F44F
:1054A000397E09C032FF06C0B394B39404C0832F81
:1054B000867809F0B39433FD13C030FF06C05A2C30
:1054C000B31418F4530C5B18B32CB31468F4B7017D
:1054D00080E290E03C870E94D52AB3943C85F5CFCA
:1054E000B31410F43B1801C0312C34FF12C0B701C3
:1054F00080E390E03C870E94D52A3C8532FF17C0AC
:1055000031FD03C088E790E002C088E590E0B70174
:105510000CC0832F867859F031FF02C08BE201C0A6
:1055200080E237FD8DE2B70190E00E94D52AA514F4
:1055300038F4B70180E390E00E94D52A5A94F7CF5F
:10554000AA94F401EA0DF11D8081B70190E00E9458
:10555000D52AA110F5CF332009F451CEB70180E24E
:1055600090E00E94D52A3A94F6CFF7018681978180
:1055700002C08FEF9FEF2C96E2E10C94D026FC0145
:105580000590615070400110D8F7809590958E0F6E
:105590009F1F0895FC016150704001900110D8F7E1
:1055A000809590958E0F9F1F08950F931F93CF9313
:1055B000DF93FB01238121FD03C08FEF9FEF28C004
:1055C00022FF16C046815781248135814217530737
:1055D00044F4A081B1819D012F5F3F4F318320832F
:1055E0008C93268137812F5F3F4F3783268310C0EE
:1055F000EB01092F182F0084F185E02D0995892BE7
:10560000E1F68E819F8101969F838E83812F902F5B
:10561000DF91CF911F910F910895FA01AA272830A9
:1056200051F1203181F1E8946F936E7F6E5F7F4F6F
:105630008F4F9F4FAF4FB1E03ED0B4E03CD0670FEB
:10564000781F891F9A1FA11D680F791F8A1F911D3E
:10565000A11D6A0F711D811D911DA11D20D009F48E
:1056600068943F912AE0269F11243019305D3193D0
:10567000DEF6CF010895462F4770405D4193B3E0B9
:105680000FD0C9F7F6CF462F4F70405D4A3318F060
:10569000495D31FD4052419302D0A9F7EACFB4E011
:1056A000A6959795879577956795BA95C9F70097C9
:1056B0006105710508959B01AC010A2E069457956A
:1056C000479537952795BA95C9F7620F731F841FC1
:1056D000951FA01D089511E0CFEBD1E004C0FE019D
:1056E0000E9440272196C03CD107C9F7F894FFCF0C
:1056F0000000C30580003707D409A015FFFFB5627D
:1057000006040400FF87000094F5B562061102004C
:1057100008012292B5620611020008002191B562CB
:10572000063E2C00000020050008100001000101C9
:105730000101030000000101030810000000010145
:10574000050003000000010106080E000000010131
:10575000FC11B56206242400FFFF060300000000D0
:10576000102700000500FA00FA0064002C01000078
:1057700000000000000000000000000016DCB56220
:105780000600140001000000D00800008025000081
:105790000700010000000000A0A9B5620624240053
:1057A000FFFF030300000000102700000500FA00BF
:1057B000FA0064002C01000000000000000000005E
:1057C000000000001376B562062400002A84B5624A
:1057D00001020000030AB562012100002267B562E0
:1057E0000106000007165749444531005749444512
:1057F0003200212F257325734F2020202F413D2576
:1058000030366C647C25737C257300415052530004
:105810003A252D39733A5041524D2E536174656CBF
:105820006C697465732C54656D7065726174757202
:10583000652C48756D69646974792C507265737351
:10584000757265003A252D39733A554E49542E53D9
:105850006174732C6465672E432C5063742C6850FC
:1058600061003A252D39733A45514E532E302C3173
:105870002C302C302C312C2D3130302C302C312C44
:10588000302C302C312C30004669727374207061DA
:1058900072616D2073656E74007365636F6E642052
:1058A000706172616D007468697264207061726108
:1058B0006D004348414E47454D4500313100687405
:1058C00074703A2F2F7069636F62616C6C6F6F6ECA
:1058D0002E697374205042462D330053656E742038
:1058E000210043616E6E6F74206C6F636B2021002A
:1058F00000000000A717DD18281742173417851776
:105900000D0A006E616E00696E66006F76660000BB
:10591000000000741BDD18E11B531BC91BC81B00D2
:10592000000000201EF01DC41DCC1DE01DEF1D0059
:00000001FF
